

# config

编译 qemu, 需要打开 `CONFIG_EDU=y`, 默认会打开

`hw/misc/Kconfig`:

```Kconfig
config EDU
    bool
    default y if TEST_DEVICES
    depends on PCI && MSI_NONBROKEN
```

`configs/devices/i386-softmmu/default.mak` 如下, `CONFIG_TEST_DEVICES` 默认是打开的

```conf
# Uncomment the following lines to disable these optional devices:

#CONFIG_TEST_DEVICES=n
```

编译结果

```
build/x86_64-softmmu-config-devices.mak:149:CONFIG_TEST_DEVICES=y
build/x86_64-softmmu-config-devices.h:304:#define CONFIG_TEST_DEVICES 1
build/meson-logs/meson-log.txt:4104:CONFIG_TEST_DEVICES=y

build/x86_64-softmmu-config-devices.mak:42:CONFIG_EDU=y
build/x86_64-softmmu-config-devices.h:90:#define CONFIG_EDU 1
build/meson-logs/meson-log.txt:3997:CONFIG_EDU=y
```

# 运行

命令行中加上 `-device edu` 即可.

```bash
#!/bin/bash

/root/workspace/codes/upstream/qemu/build/qemu-system-x86_64 \
    -name ubuntu -accel kvm \
    -drive file=/root/workspace/codes/upstream/edk2/Build/OvmfX64/DEBUG_GCC5/FV/OVMF.fd,format=raw,if=pflash \
    -cpu host,host-cache-info=true \
    -m 2G -smp 2 \
    -drive file=/root/workspace/tools/ubuntu22.04.qcow2,format=qcow2,if=none,id=drive-virtio-disk0,cache=none \
    -object iothread,id=iothread0 \
    -device edu \
    -device virtio-blk-pci,iothread=iothread0,scsi=off,drive=drive-virtio-disk0,id=virtio-disk0,bootindex=1 \
    -netdev user,id=hostnet0 -device rtl8139,netdev=hostnet0,id=net0,mac=52:54:00:36:32:aa,bus=pci.0,addr=0x5 \
    -chardev socket,id=montest,server=on,wait=off,path=/tmp/mon_test -mon chardev=montest,mode=readline \
    -serial mon:stdio -nographic
```

启动后, 通过 lspci 查看 edu 设备.

```
# lspci -s 00:03.0
00:03.0 Unclassified device [00ff]: Device 1234:11e8 (rev 10)

# lspci -s 00:03.0 -vvv -xxxx
00:03.0 Unclassified device [00ff]: Device 1234:11e8 (rev 10)
        Subsystem: Red Hat, Inc. Device 1100
        Physical Slot: 3
        Control: I/O+ Mem+ BusMaster+ SpecCycle- MemWINV- VGASnoop- ParErr- Stepping- SERR- FastB2B- DisINTx-
        Status: Cap+ 66MHz- UDF- FastB2B- ParErr- DEVSEL=fast >TAbort- <TAbort- <MAbort- >SERR- <PERR- INTx-
        Latency: 0
        Interrupt: pin A routed to IRQ 11
        Region 0: Memory at 81000000 (32-bit, non-prefetchable) [size=1M]
        Capabilities: [40] MSI: Enable- Count=1/1 Maskable- 64bit+
                Address: 0000000000000000  Data: 0000
00: 34 12 e8 11 07 00 10 00 10 00 ff 00 00 00 00 00
10: 00 00 00 81 00 00 00 00 00 00 00 00 00 00 00 00
20: 00 00 00 00 00 00 00 00 00 00 00 00 f4 1a 00 11
30: 00 00 00 00 40 00 00 00 00 00 00 00 0b 01 00 00
40: 05 00 80 00 00 00 00 00 00 00 00 00 00 00 00 00
50: 00 00 00 00 00 00 00 00 00 00 00 00 00 00 00 00
60: 00 00 00 00 00 00 00 00 00 00 00 00 00 00 00 00
70: 00 00 00 00 00 00 00 00 00 00 00 00 00 00 00 00
80: 00 00 00 00 00 00 00 00 00 00 00 00 00 00 00 00
90: 00 00 00 00 00 00 00 00 00 00 00 00 00 00 00 00
a0: 00 00 00 00 00 00 00 00 00 00 00 00 00 00 00 00
b0: 00 00 00 00 00 00 00 00 00 00 00 00 00 00 00 00
c0: 00 00 00 00 00 00 00 00 00 00 00 00 00 00 00 00
d0: 00 00 00 00 00 00 00 00 00 00 00 00 00 00 00 00
e0: 00 00 00 00 00 00 00 00 00 00 00 00 00 00 00 00
f0: 00 00 00 00 00 00 00 00 00 00 00 00 00 00 00 00
```

edu 设备本身目的是用于教学的目的, 驱动需要额外编写实现. 

简易验证下, 比如读 edu BAR0 寄存器内容. 这里的 BAR0 所在的物理地址是 0x81000000, BAR 的大小是 1M.

读取 edu 设备 BAR0, 起始 0, size 4 字节内容

```
# devmem2 0x81000000
/dev/mem opened.
Memory mapped at address 0x7f7f03006000.
Value at address 0x81000000 (0x7f7f03006000): 0xFFFFFFFF
```

注: 读设备 BAR 寄存器, 首先要配置使能开关, `Mem-` 要设置成 `Mem+`

